:10000000010E006E0000002E02EF00F01200060E3E
:10001000006E0000002E0AEF00F012000B0E006EC2
:100020000000002E10EF00F01200170E006E00000E
:1000300000000000002E19EF00F01200400E006ECC
:1000400000000000002E22EF00F012003D0E006EB6
:100050000000002E28EF00F012007B0E006E000062
:1000600000000000002E31EF00F01200F80E006ECC
:10007000000000000000002E3AEF00F01200050E14
:10008000016E00000000F80E006E0000002E45EF2B
:1000900000F00000012E43EF00F00000000012000D
:1000A0000A0E016E00000000F80E006E0000002E27
:1000B00056EF00F000000000012E54EF00F00000A9
:1000C00000001200190E016EF80E006E0000000014
:1000D000002E67EF00F000000000012E64EF00F03A
:1000E0001200320E016EF80E006E00000000002EAD
:1000F00076EF00F000000000012E73EF00F0120018
:10010000640E016EF80E006E00000000002E85EFF8
:1001100000F000000000012E82EF00F01200C80E77
:10012000016EF80E006E00000000002E94EF00F04B
:1001300000000000012E91EF00F01200FA0E016E97
:10014000F80E006E0000002EA2EF00F0000000008C
:100150000000012EA0EF00F01200D3ED00F0D9ED69
:1001600000F0000EC86E010ED06EF0EC00F0020E32
:10017000D06E9EEC00F0040ED06EF0EC00F0080E95
:10018000D06E9EEC00F0100ED06EF0EC00F0200E61
:10019000D06E9EEC00F0400ED06EF0EC00F0800EC1
:1001A000D06E9EEC00F00001600EAD6F020EB16FDC
:1001B00012000401D06BC087106BC8970401CE6B8E
:1001C000006BC68701871200FA0E036EF90E026EED
:1001D0000000022EE8EF00F0032EE6EF00F0120020
:1001E000320E046E0A0E036EFA0E026E0000022E2C
:1001F000F6EF00F0032EF4EF00F0042EF2EF00F023
:020200001200EA
:020000040001F9
:04FFFC00ADEF00F075
:020000040030CA
:10000000EC0D27C79FFFFFFFFFFFFFFFFFFFFFFF75
:10001000FFFFFFFFFFFFFFFFFFFFFFFFFFFFFFFFF0
:03002000FFFFFFE0
:00000001FF
