:10000000010E006E0000002E02EF00F01200060E3E
:10001000006E0000002E0AEF00F012000B0E006EC2
:100020000000002E10EF00F01200170E006E00000E
:1000300000000000002E19EF00F01200400E006ECC
:1000400000000000002E22EF00F012003D0E006EB6
:100050000000002E28EF00F012007B0E006E000062
:1000600000000000002E31EF00F01200F80E006ECC
:10007000000000000000002E3AEF00F01200050E14
:10008000016E00000000F80E006E0000002E45EF2B
:1000900000F00000012E43EF00F00000000012000D
:1000A0000A0E016E00000000F80E006E0000002E27
:1000B00056EF00F000000000012E54EF00F00000A9
:1000C00000001200190E016EF80E006E0000000014
:1000D000002E67EF00F000000000012E64EF00F03A
:1000E0001200320E016EF80E006E00000000002EAD
:1000F00076EF00F000000000012E73EF00F0120018
:10010000640E016EF80E006E00000000002E85EFF8
:1001100000F000000000012E82EF00F01200C80E77
:10012000016EF80E006E00000000002E94EF00F04B
:1001300000000000012E91EF00F01200FA0E016E97
:10014000F80E006E0000002EA2EF00F0000000008C
:100150000000012EA0EF00F0120046ED01F04CED82
:1001600001F0D88A000EC96ED89A57EC01F0CEB6CD
:10017000ECEF00F0880ED16E57EC01F057EC01F077
:1001800042EC01F0830ED16E57EC01F057EC01F018
:1001900042EC01F0C60ED16E57EC01F057EC01F0C5
:1001A00042EC01F0A10ED16E57EC01F057EC01F0DA
:1001B00042EC01F0860ED16E57EC01F057EC01F0E5
:1001C00042EC01F08E0ED16E57EC01F057EC01F0CD
:1001D00042EC01F0B5EF00F0C00ED16E57EC01F02B
:1001E00057EC01F03EEC01F0F90ED16E57EC01F046
:1001F00057EC01F03EEC01F0A40ED16E57EC01F08B
:1002000057EC01F03EEC01F0B00ED16E57EC01F06E
:1002100057EC01F03EEC01F0990ED16E57EC01F075
:1002200057EC01F03EEC01F0920ED16E57EC01F06C
:1002300057EC01F03EEC01F0820ED16E57EC01F06C
:1002400057EC01F03EEC01F0F80ED16E57EC01F0E6
:1002500057EC01F03EEC01F0800ED16E57EC01F04E
:1002600057EC01F03EEC01F0980ED16E57EC01F026
:1002700057EC01F03EEC01F0B5EF00F0CEA6BAEF7E
:1002800000F01200CEB6ECEF00F012000001600E9C
:10029000AD6F020EB16F12000401D16BC18F186BEC
:1002A000C99F0401CE6B006BC68701871200320E16
:1002B000046E0A0E036EFA0E026E0000022E5DEF4F
:1002C00001F0032E5BEF01F0042E59EF01F0120054
:020000040001F9
:04FFFC00ADEF00F075
:020000040030CA
:10000000EC0D27C79FFFFFFFFFFFFFFFFFFFFFFF75
:10001000FFFFFFFFFFFFFFFFFFFFFFFFFFFFFFFFF0
:03002000FFFFFFE0
:00000001FF
