:0400000013EF00F00A
:08000800B8A01000ADEF00F0FC
:10001800AFA012EF00F0AF903EEF00F0100048EDF7
:1000280000F04EED00F06AED00F074ED00F01DEF09
:1000380000F0C3769CED00F0C3769CED00F01DEF58
:1000480000F025EF00F0C3860401000EFB6F010EDF
:10005800FA6F034485EC00F0C06E90ED00F0052EB9
:100068003BEF00F0062E42EF00F0ADEF00F0032A60
:1000780027EF00F0050E066E000E036E0A0E056EE1
:10008800000E036E27EF00F00001600EAD6F020E48
:10009800B16F12000401D36BC387C385286BCB975C
:1000A800CB950401CE6B006BC68701870401CF6B2B
:1000B800086BC78909890401D36B286BCB8529850F
:1000C8000401D06BC06B106BC86B12000201030EE9
:1000D8003E6F02010C0E3F6F02012A0E406F1200A4
:1000E800D68A0301639168816C81D690AF909F8016
:1000F800D692B490A480D694B890A880D68ED68C88
:100108001200F926810C420C240C180C000C180C57
:10011800240C420C810C000CFA0E016EF90E006ED4
:100128000000002E94EF00F0012E92EF00F0120074
:10013800020E026EFA0E016EF90E006E0000002E1D
:10014800A2EF00F0012EA0EF00F0022E9EEF00F0CB
:02015800120093
:020000040030CA
:10000000EC0D27C79FFFFFFFFFFFFFFFFFFFFFFF75
:10001000FFFFFFFFFFFFFFFFFFFFFFFFFFFFFFFFF0
:03002000FFFFFFE0
:00000001FF
